:020000040000FA
:1000000050290020410100005B0100005D0100005B
:1000100000000000000000000000000000000000E0
:10002000000000000000000000000000D5000000FB
:10003000000000000000000001010000630100005A
:10004000E501000065010000650100006501000098
:10005000650100000000000065010000650100006E
:1000600065010000650100006501000065010000F8
:1000700065010000650100006501000065010000E8
:10008000650100003D0200006501000065010000FF
:1000900065010000650100006501000065010000C8
:1000A0006501000065010000000000000000000084
:1000B0000000000000000000000000000000000040
:1000C0000348854600F07CF800480047850400009E
:1000D000502900200848006880F30888174B1968E9
:1000E0000868203080F30988022080F314883FBC20
:1000F000AE4662B600BD0000000000000000000037
:10010000EFF309800D4B1A6820381060F0C04446A8
:100110004D4656465F46F0C008B500F0CBFD0CBC1E
:10012000116808681030F0C8A046A946B246BB4620
:1001300080F309882038F0C8184700000C00002020
:100140000321094802680A430260084802680A431A
:1001500002600748804707480047FEE7FEE7FEE7E2
:10016000FEE7FEE7FEE700002405004054050040DE
:10017000B5020000C100000003460B439B0703D0FB
:1001800009E008C9121F08C0042AFAD203E00B785C
:100190000370401C491C521EF9D27047D2B201E0D4
:1001A0000270401C491EFBD270470022F6E710B5D2
:1001B00013460A4604461946FFF7F0FF204610BDD5
:1001C000064C0125064E05E0E36807CC2B430C3CAA
:1001D00098471034B442F7D3FFF776FF601700005A
:1001E00080170000F8B5FF20013000F0B5F90024B9
:1001F00001250F4E0F4F002808D00F480460012042
:10020000B0607D720021381D00F0F4F8FF20053049
:1002100000F0A2F900280AD00748001D046002205F
:10022000B060BD7203480121103000F0E3F8F8BD62
:10023000000300403C2100200001004038B51A496D
:100240008A1500208850FF2241328850EFF3108138
:100250000090002907D172B669464870887802215B
:10026000084369468870009C01F030F90F494968DD
:10027000081A0002000A0DD0022802D9401E00F020
:1002800073FE01F029F9002804D001200849000775
:10029000486040BF684600948078800703D5684670
:1002A000407880F3108838BD0010014000150140EF
:1002B00000ED00E010B500F0BBF8002805D01F49A4
:1002C0001D484860C8131E4988611E48018CC9B288
:1002D00001290BD1828C120708D1028D1206120F50
:1002E000042A03D1828D1206120F0AD0012921D1CE
:1002F000818C09071ED1018D0906090F0A2904D036
:1003000007E0114A01219160F5E7828D1206120F74
:1003100005D00D290ED1808D0006000F0AD10B48A3
:100320000168012904D00A49016001680129FCD152
:10033000C021416110BD0000DFFF07C00005004083
:10034000006C0040C00F00F00006004000EC0640CA
:100350007593000030B47446641E2578641CAB426B
:1003600000D21D46635D5B00E31830BC184702E015
:1003700008C8121F08C1002AFAD170477047002030
:1003800001E001C1121F002AFBD17047BFF34F8F5C
:1003900004490348C860BFF34F8F00BFFDE700006A
:1003A0000400FA0500ED00E00EB500210290009176
:1003B0006A4601910148FFF7E9FF0EBD01400000C8
:1003C00000B500F005F800BD00B500F009F800BD6B
:1003D00072B602480168491C016070475C00002049
:1003E00003490868401E086000D162B670470000EB
:1003F0005C00002070B50D4604462068002805D03A
:1004000001682160416828468847F6E770BD000012
:10041000054901200968002901D0002070470349DF
:10042000096A0029F9D17047D82000200C0000206B
:100430001048018CC9B2012917D1818C090714D148
:10044000018D09060A0F03D1828D1206120F0ED0FC
:10045000090F012903D1828D1206120F07D003293B
:1004600003D1808D0006000F01D0002070470120CD
:1004700070470000C00F00F002680A60002A0160A7
:100480007047000088B000F06FF8002801D0FFF737
:100490008BFF0C2000F0E6F80E2000F0E3F80F20B0
:1004A00000F0E0F8102000F0DDF80C2000F0E2F899
:1004B0000E2000F0DFF80F2000F0DCF8102000F034
:1004C000D9F8002404A8FF260225053601900294DD
:1004D0002346324617A100950394174800F032FFD7
:1004E00005A8019002940023324614A100950394BC
:1004F000134800F027FF06A801900294002332461B
:1005000010A100950394104800F01CFF07A801906B
:100510000294002332460DA1009503940C4800F08C
:1005200011FF0C48016904221143016100F0F8FC3D
:10053000FEE700004C300000DB0B00004C310000F7
:10054000E90B00004C320000F70B00004C330000B8
:10055000050C000000ED00E001218907401800684B
:10056000002800D00120704770B50C4C207A00287C
:1005700001D0852070BD0025656025602561084992
:10058000FF20E560086106480126403886610321A6
:10059000284600F037F82672284670BD3C2100201E
:1005A0004005004070B504460020FFF709FF124DDA
:1005B000A87A002805D0002C16D061680120884751
:1005C00012E0002C04D00C4821461030FFF754FFF5
:1005D000E868002808D109490860094902204860F4
:1005E00006490120FC390860E868401CE8600020EA
:1005F000FFF7EAFE70BD00003C210020040100402E
:10060000000300408207D30EFF229A408907090E9B
:1006100010B5994000280BDA03071B0F083B9C0814
:100620000C4BA400E318DC6994430C43DC6107E045
:100630008408094BA400E418236893430B43236008
:10064000C106C90E012088400449086004490860B9
:1006500010BD000000ED00E000E400E080E200E0FA
:1006600000E100E0024A0321800080180160704729
:10067000000700500121814001488160704700005F
:10068000000500500121044A814050680B46834315
:1006900093600840D06070470005005070B50B4C67
:1006A00005462068456020692168854204D2A06B18
:1006B000091D00F0BCFA70BD606B091D00F0B7FAAF
:1006C000E06A8542F7D2E56270BD00000C000020B0
:1006D00010B500F0D1FA0E4C2068002815D10D4855
:1006E00000F097FA0B48143000F093FA0948E060E4
:1006F0001430206100221021202000F087FC2060AF
:10070000002802D004A100F057FB00F0BDFA10BD94
:100710004800002014210020546D72510000000098
:1007200070B5134E134C1BE000F026FC3068002817
:100730001AD000F07DFF00F09FFAF068C568281D10
:1007400000F039FAE068401EE0606068401E6060BA
:1007500000F09AFA286B00F0A1FA284600F09EFA01
:1007600060680028E0D170BD00F062FFF8E700008B
:10077000EC2000200C00002010B5026C0C46002A72
:100780000CD0C1688B18C36041688B4201D21946F6
:1007900001E00168C1602046FFF7EEFC10BD70B5B6
:1007A0001646026C00250446002A11D0002E19D0EE
:1007B000E068FFF7E1FCE168206C091AE16022685B
:1007C000914202D26168081AE060022E17D01CE044
:1007D0002068002819D1606800F0D0FE054600208E
:1007E000606012E0A068FFF7C7FC216CA0684018A9
:1007F000A0606168884208D32068A06005E0A06B13
:10080000002802D0A06B401EA063A06B401CA06318
:10081000284670BD07480168C96A002901D0002038
:100820007047054909680129F9D8C16A0069081AA1
:10083000704700000C000020742000200B4CFFF7D4
:100840006FFF2068012801D900F0AAFAFFF7E2FF44
:100850000228F4D300F090FBFFF7DCFF022801D35D
:1008600000F06AFA00F0E4FEE9E7000074200020DE
:1008700070B5002441600B4D0061914206D8D11A39
:100880008269914206D2011D286907E09A4203D28B
:10089000994201D3012403E0011DE86800F0C7F983
:1008A000204670BD4800002030B589B0274D43E098
:1008B0000498002806DA059A079906989047049844
:1008C000002839DB069C6069002802D0201D00F05A
:1008D00072F902A800F08EF8024604980300FFF7B0
:1008E00039FD0A0606062B202806062B202B059824
:1008F000A169034641182046FFF7BAFF01281BD122
:10090000616A20468847E069012815D100200090DF
:100910000598A169002342181946204600F0F8FE08
:100920000AE00598A061811813462046FFF7A0FF52
:1009300002E0204600F0B2F900231A4604A9286814
:1009400000F083FB0028B3D109B030BD480000207F
:10095000FEB50F46054600F00FFB01A800F04AF86F
:1009600004460198002802D000F062FEFEBD184E39
:10097000002F22D1A54220D800F05AFEF068274669
:10098000C068C468201D00F016F9E069012810D184
:10099000A0692B4641193A462046FFF769FF012816
:1009A00007D100200346014600902A46204600F069
:1009B000AFFE616A20468847FEBD291B306800F003
:1009C0000DFA00F035FE0028F6D100F0E9F9FEBD81
:1009D000480000200648416B0968002905D0416B9A
:1009E000C968C9684968C16270470021C943FAE70C
:1009F0000C00002070B5054600F062FD064E04466E
:100A0000B068844203D200F009F8012000E0002021
:100A100028602046B46070BD48000020F8B5144D31
:100A20001EE0C068C4680668201D00F0C4F8616A52
:100A300020468847E069012812D1A0698019B04298
:100A400006D924616060211DE86800F0F0F807E035
:100A500000200346014600903246204600F058FE32
:100A6000E86801680029DCD12969E9602861F8BDDE
:100A70004800002072B6FEE7074CE06801680029D4
:100A800007D0C06800210068FFF762FFFFF70CFF86
:100A9000F3E701210020F7E74800002070B5044685
:100AA00000F0EAF8254624350CE0606A00280CD0F6
:100AB000284600F08DFD002801D000F0C3F9A06C9D
:100AC000401EA064A06C0028EFDC0026F643A6645C
:100AD00000F0DAF800F0D0F8254610350CE0206977
:100AE00000280CD0284600F073FD002801D000F04B
:100AF000A9F9606C401E6064606C0028EFDC6664DD
:100B000000F0C2F870BD000070B504460025400733
:100B100004D06007400F0821081A041900F02CFACD
:100B20000A484168002903D10949C908C900416040
:100B30000168084B0A199A4204D28A4202D94368D2
:100B400002605D1800F074FD284670BD00000020B2
:100B50006C000020F81F000004490868002803D03A
:100B60000868C26B521CC263086870470C00002002
:100B700010B5064C031F24681C601B1F1960191F49
:100B8000034B0B60143940380A6010BD5C1700003D
:100B9000750A000008B50021EFF3108000910028CD
:100BA00007D172B6684641708178022001436846D9
:100BB0008170009808BD4368826801699A60836803
:100BC00042685A604A68824201D182684A600022C3
:100BD00002610868401E086070470C20FFF752FD54
:100BE0001E2000F017F9F8E70E20FFF74BFD1B2041
:100BF00000F010F9F8E70F20FFF744FD192000F08E
:100C000009F9F8E71020FFF73DFD142000F002F984
:100C1000F8E70146083100224160D243C16082609A
:100C2000016100210160704700210161704730B50A
:100C30000B685A1C02D00246083202E0026904E046
:100C40002246546825689D42FAD953684B609960E2
:100C50008A60516008610168491C016030BD4268CA
:100C60004A6093688B60936859609160086101687D
:100C7000491C01607047000072B602480168491CB7
:100C8000016070470800002003490868401E0860A2
:100C900000D162B67047000008000020704708B518
:100CA000009068468078800703D56846407880F3D6
:100CB000108808BD38B50021EFF31080009100289E
:100CC00007D172B6684641708178022001436846B8
:100CD0008170009C00F058F9684600948078800785
:100CE00003D56846407880F3108838BD10B50020E1
:100CF000FFF758FC0C4A20210A4891600B4A012159
:100D00005160816001600A490868FF221202904325
:100D10000322920310430860012006494004086042
:100D200010BD0000001001400015014000130140FB
:100D300010E400E000E100E070B50446134884428E
:100D400000D9044672B60120124D114AA86012491A
:100D5000486800190002000A00230864FF2041309F
:100D60001350012636046E60FFF752FB002808D0AE
:100D7000002C06D0BFF34F8F084820BF0168002920
:100D8000FBD062B6AE600120686070BDFDFFFF0061
:100D900000100140001301400015014000E200E096
:100DA000012004490007486040BFBFF34F8FBFF3E5
:100DB0006F8F704700ED00E010B5074B0022D400A4
:100DC0001C59002C03D0521C022AF8D310BDD200AB
:100DD0009950D118486010BD6420002070B50D46B0
:100DE0000446FFF749FF616C0020491C00D1606494
:100DF000A16C491C00D1A064FFF746FFA06B00283E
:100E000004D120462946243000F03EF82046FFF762
:100E100045FE70BD10B502000FD000F0ADF80848D7
:100E2000016900688C18001DFFF7C5FE2046FFF71A
:100E300035FC00F0FDFB002801D1FFF7B1FF10BD2C
:100E40000C00002001490120086270470C000020BE
:100E500070B50B4D0C4629681831FFF7E8FE28687D
:100E6000001DFFF7A8FE601C04D028690019FFF7D9
:100E700015FC70BD29680348091DFFF7F0FE70BD21
:100E80000C0000200021002070B5074C0D462168A1
:100E90001831FFF7E4FE2068001DFFF78CFE206983
:100EA0004019FFF7FBFB70BD0C00002070B504007B
:100EB00025D0154DE06A2968C96A88421FD2A06909
:100EC000002804DB28680321C06A081AA061E06AD0
:100ED00014220E4E504361698019814210D1201DA9
:100EE000FFF769FE2868C06AE0626969884200D934
:100EF0006861142148438019211DFFF7B0FE70BDC1
:100F00002868C06AE06270BD0C00002074200020D8
:100F100002494A6A02600969416070470C0000207A
:100F20001FB500240C4801900094029423463C22F3
:100F30000AA103940B4800F005FA01280BD100F038
:100F4000C5FB012807D172B6012103480838816129
:100F5000046100F03FF81FBD1400002049444C45D7
:100F6000000000003D08000002490A6910180861ED
:100F7000704700000C0000200248016B491C01630F
:100F8000704700000C0000201048016B002902D0BF
:100F9000012101627047002101620D4901E0521EEA
:100FA0004261426914235A438A58002A4269F6D0A2
:100FB0005A4351184A680B46526808334A609A42AD
:100FC00001D152684A60D168016070470C0000206E
:100FD000742000200B4C211DC869FF22120490438D
:100FE0000322920510431025C861FFF77FFE0649D2
:100FF00000200860206928432061FFF76BF872B673
:10100000FEE7000000ED00E00800002070B50024BD
:101010000E460546002914D07043401C4C30FFF7A3
:1010200073FD00280BD00446002E0CD020464C3017
:101030002060266401212046E56300F08EF82046FA
:1010400070BD0020EAE72460F3E7FFB5002583B018
:101050001E4604462F46FFF70FFEA06B00282AD03D
:10106000E56820460499FFF787FB002E10D0E56065
:10107000606A002807D02046243000F0A9FA002832
:1010800001D0FFF78DFEFFF7FFFD012007B0F0BD97
:10109000A06B401EA0632068002802D1FFF75CFD12
:1010A000606020690028EED02046103000F090FAF1
:1010B0000128E6D0E7E70598002802D0002D03D0EC
:1010C00006E0FFF7E1FD1EE06846FFF721FF01257E
:1010D000FFF7DAFDFFF750FFFFF7CEFD606C401C15
:1010E00000D16764A06C401C00D1A764FFF7CCFD61
:1010F00005A9684600F002F9002806D02046FFF74F
:10110000CDFC00F095FA0020C0E7FFF7B5FDA06B1D
:10111000002807D0FFF7B8FD2046FFF7BFFC00F01E
:1011200087FA98E7FFF7B0FD2068002806D1FFF79F
:10113000A3FD6068FFF7BAFEFFF7A6FD2046243046
:101140000599FFF785FE2046FFF7A8FC00F070FA2E
:10115000002880D1FFF724FE7DE770B50D460446D8
:10116000FFF78AFD216CE06B4843216840186060FE
:101170000020A063A160E06B216C401E4843216801
:101180004018E0600020C0436064A0642046103036
:10119000002D09D0FFF73DFD20462430FFF739FD33
:1011A000FFF772FD012070BD21690029F8D000F021
:1011B0000FFA0128F4D1FFF7F3FDF1E7FFB50025A1
:1011C00083B01E4604462F46FFF756FDA06BE16B29
:1011D000884207D3022E05D0059800281AD0002D8A
:1011E0001BD01EE0324620460499FFF7D8FA616A08
:1011F000002906D02046243000F0EAF9012802D068
:1012000003E0002801D0FFF7CBFDFFF73DFD0120F3
:1012100007B0F0BDFFF738FD1EE06846FFF778FE27
:101220000125FFF731FDFFF7A7FEFFF725FD606CF5
:10123000401C00D16764A06C401C00D1A764FFF77C
:1012400023FD05A9684600F059F8002806D020467D
:10125000FFF724FC00F0ECF90020D9E7FFF70CFDC4
:10126000A06BE16B884210D1FFF70EFD20461030D5
:101270000599FFF7EDFD2046FFF710FC00F0D8F9C7
:101280000028A1D1FFF78CFD9EE7FFF7FDFC20466B
:10129000FFF704FC00F0CCF996E7FFB581B01E46DD
:1012A00015460446FFF776FC0746A06BE16B8842C3
:1012B00008D3022E06D000243846FFF7F0FC204663
:1012C00005B0F0BD324620460299FFF768FAA06CDF
:1012D000401C04D0A06C401CA0640124ECE7606AB0
:1012E0000028FAD02046243000F072F90028F4D00B
:1012F000002DF2D001202860EFE7000070B50D4608
:101300000446FFF7B9FC0E4A11692868431C0FD048
:101310002368526A934202D062688A420AD962689C
:10132000891A814206D2401A28602046FFF7F0FD54
:10133000002400E00124FFF7A7FC204670BD000058
:101340000C000020FFB581B00C9895000A9F002882
:1013500002D12846FFF7D8FB060016D04820FFF739
:10136000D3FB040030460ED0A52229462063FEF7A9
:1013700015FF206B2D1F4019C008C00000903D468E
:101380000020029904E0FFF789FC0024E44380E098
:1013900022180B5C203213750A5C002A02D0401C14
:1013A0000428F5D3002637200655032D00D3022547
:1013B000E562E663201DA563FFF736FC2046183082
:1013C000FFF732FC24610320411B6462A1612664A3
:1013D00044200655049A01990098FFF7C9FB206044
:1013E0000B98002800D00460FFF746FC2A4DE868FF
:1013F000401CE8602868002803D0A869002828D08D
:101400002CE02C60E868012828D10026142023490C
:1014100070434018FFF7FDFB761C032EF6D31F48E0
:101420003C30FFF7F6FB1D485030FFF7F2FB1B483E
:101430006430FFF7EEFB19487830FFF7EAFB1748F6
:101440008C30FFF7E6FB15483C3068631430A86326
:1014500004E02868C06AB84200D82C60A86A401C22
:10146000A862E06A6969884200D96861142148432A
:101470000A494018211DFFF7F2FB0124FFF704FC85
:10148000A869002805D02868C06AB84201D2FFF7D1
:1014900087FC204605B0F0BD0C0000207420002021
:1014A00006488169002904D0006B002803D0002081
:1014B0007047012070470220704700000C00002098
:1014C00001480069704700000C00002001480069D5
:1014D000704700000C000020F8B5264C0027206B58
:1014E000002808D0E069401CE061206A002800D094
:1014F00001273846F8BD2069401C20612669002E6E
:1015000008D1606BA16B6163A063606A401C60627C
:10151000FFF760FAE06A8642E7D3606B0068002854
:1015200007D0606BC068C5686868864204D2E06214
:10153000DBE70020C043FAE7281DFFF73CFBA86A61
:10154000002803D028461830FFF735FBE86A6169A8
:10155000884200D960611421484307494018291D79
:10156000FFF77DFBE86A2168C96A8842D5D3012765
:10157000D3E700000C0000207420002010B50021EB
:10158000044600281ED0E06B401EE063A36BE26AB5
:101590009A4217D0002815D1201DFFF70CFBA06B35
:1015A0000321E062081AA0610749E06A4A69904293
:1015B00000D948611421484304494018211DFFF710
:1015C0004EFB0121084610BD0C00002074200020B5
:1015D00070B5C068C468204618300646FFF7EBFABD
:1015E000114D286B002802D0314610480DE0201D17
:1015F000FFF7E1FAE06A6969884200D9686114215D
:1016000048430A4964394018211DFFF728FBE06A66
:101610002968C96A884202D901242C6200E00024AA
:10162000FFF7D8F9204670BD0C000020D82000201C
:10163000F8B50026FFF720FB224C206B401E2063EC
:10164000206B00283AD1E1681F4F00291DD135E0F9
:10165000F868C56828461830FFF7ADFA281DFFF76F
:10166000AAFAE86A6169884200D960611421484396
:10167000154964394018291DFFF7F1FAE86A216815
:10168000C96A884201D30120206238680028DFD16E
:10169000E06900280CD00125E069002808D0FFF798
:1016A0001BFF002800D02562E069401EE061F3E7DF
:1016B000206A012802D10126FFF772FBFFF7E4FA46
:1016C0003046F8BD0C000020D82000201FB50024B3
:1016D000FEF7FEFF0A48006800280ED000200849E7
:1016E0000222091D029003460092019103905022AC
:1016F00004A10648FFF726FE0446204604B010BDAC
:1017000048000020546D722053766300790A00006F
:10171000F0B5114C1D4685B00346276800200A9E8F
:10172000002F0DD068460EC006290EDAFFF7B8FE6E
:10173000022807D000231A4669462068FFF73EFDBD
:1017400005B0F0BD00233246F6E700232A4669467D
:101750003846FFF7A2FDF3E7480000200000000133
:101760008017000000000020640000006E030000ED
:10177000E417000064000020EC2800007E03000055
:101780000000000000000000000000000000000059
:101790000000000000000000000000000000000049
:1017A0000000000000000000000000000000000039
:1017B0000000000000000000FFFFFFFF000000002D
:1017C0000000000000000000000000000000000019
:1017D0000000000000000000000000000000000009
:0417E0000024F400ED
:04000005000000C136
:00000001FF
