:020000040000FA
:1000000050290020410100005B0100005D0100005B
:1000100000000000000000000000000000000000E0
:10002000000000000000000000000000D5000000FB
:10003000000000000000000001010000630100005A
:10004000E501000065010000650100006501000098
:10005000650100000000000065010000650100006E
:1000600065010000650100006501000065010000F8
:1000700065010000650100006501000065010000E8
:10008000650100003D0200006501000065010000FF
:1000900065010000650100006501000065010000C8
:1000A0006501000065010000000000000000000084
:1000B0000000000000000000000000000000000040
:1000C0000348854600F07CF800480047850400009E
:1000D000502900200848006880F30888174B1968E9
:1000E0000868203080F30988022080F314883FBC20
:1000F000AE4662B600BD0000000000000000000037
:10010000EFF309800D4B1A6820381060F0C04446A8
:100110004D4656465F46F0C008B500F067FD0CBC82
:10012000116808681030F0C8A046A946B246BB4620
:1001300080F309882038F0C8184700000C00002020
:100140000321094802680A430260084802680A431A
:1001500002600748804707480047FEE7FEE7FEE7E2
:10016000FEE7FEE7FEE700002405004054050040DE
:10017000B5020000C100000003460B439B0703D0FB
:1001800009E008C9121F08C0042AFAD203E00B785C
:100190000370401C491C521EF9D27047D2B201E0D4
:1001A0000270401C491EFBD270470022F6E710B5D2
:1001B00013460A4604461946FFF7F0FF204610BDD5
:1001C000064C0125064E05E0E36807CC2B430C3CAA
:1001D00098471034B442F7D3FFF776FF9816000023
:1001E000B8160000F8B5FF20013000F079F90024BE
:1001F00001250F4E0F4F002808D00F480460012042
:10020000B0607D720021381D00F0F4F8FF20053049
:1002100000F066F900280AD00748001D046002209B
:10022000B060BD7203480121103000F0E3F8F8BD62
:10023000000300403C2100200001004038B51A496D
:100240008A1500208850FF2241328850EFF3108138
:100250000090002907D172B669464870887802215B
:10026000084369468870009C01F0CCF80F49496842
:10027000081A0002000A0DD0022802D9401E00F020
:100280000FFE01F0C5F8002804D00120084900073E
:10029000486040BF684600948078800703D5684670
:1002A000407880F3108838BD0010014000150140EF
:1002B00000ED00E010B500F0BBF8002805D01F49A4
:1002C0001D484860C8131E4988611E48018CC9B288
:1002D00001290BD1828C120708D1028D1206120F50
:1002E000042A03D1828D1206120F0AD0012921D1CE
:1002F000818C09071ED1018D0906090F0A2904D036
:1003000007E0114A01219160F5E7828D1206120F74
:1003100005D00D290ED1808D0006000F0AD10B48A3
:100320000168012904D00A49016001680129FCD152
:10033000C021416110BD0000DFFF07C00005004083
:10034000006C0040C00F00F00006004000EC0640CA
:100350007593000030B47446641E2578641CAB426B
:1003600000D21D46635D5B00E31830BC184702E015
:1003700008C8121F08C1002AFAD170477047002030
:1003800001E001C1121F002AFBD17047BFF34F8F5C
:1003900004490348C860BFF34F8F00BFFDE700006A
:1003A0000400FA0500ED00E00EB500210290009176
:1003B0006A4601910148FFF7E9FF0EBD01400000C8
:1003C00000B500F005F800BD00B500F009F800BD6B
:1003D00072B602480168491C016070475C00002049
:1003E00003490868401E086000D162B670470000EB
:1003F0005C00002070B50D4604462068002805D03A
:1004000001682160416828468847F6E770BD000012
:10041000054901200968002901D0002070470349DF
:10042000096A0029F9D17047D82000200C0000206B
:100430001048018CC9B2012917D1818C090714D148
:10044000018D09060A0F03D1828D1206120F0ED0FC
:10045000090F012903D1828D1206120F07D003293B
:1004600003D1808D0006000F01D0002070470120CD
:1004700070470000C00F00F002680A60002A0160A7
:100480007047000086B000F033F8002801D0FFF775
:100490008BFF03220D4B022100201A600C4B4A05F2
:1004A0009A6004AA01920290034600910390FF22F1
:1004B000053208A1084800F0E1FE0848016904225D
:1004C0001143016100F0C8FCFEE70000580700502E
:1004D000000500504C3300002D0B000000ED00E043
:1004E0000121890740180068002800D001207047CA
:1004F00070B50C4C207A002801D0852070BD0025F5
:100500006560256025610849FF20E56008610648AF
:100510000126403886610321284600F037F826720C
:10052000284670BD3C2100204005004070B50446BF
:100530000020FFF745FF124DA87A002805D0002CB7
:1005400016D061680120884712E0002C04D00C48C6
:1005500021461030FFF790FFE868002808D10949CC
:10056000086009490220486006490120FC390860FA
:10057000E868401CE8600020FFF726FF70BD00001F
:100580003C21002004010040000300408207D30EFC
:10059000FF229A408907090E10B5994000280BDA0E
:1005A00003071B0F083B9C080C4BA400E318DC69F5
:1005B00094430C43DC6107E08408094BA400E41871
:1005C000236893430B432360C106C90E0120884072
:1005D000044908600449086010BD000000ED00E017
:1005E00000E400E080E200E000E100E070B50B4CC8
:1005F00005462068456020692168854204D2A06BC9
:10060000091D00F0B1FA70BD606B091D00F0ACFA75
:10061000E06A8542F7D2E56270BD00000C00002060
:1006200010B500F0C5FA0E4C2068002815D10D4811
:1006300000F08CFA0B48143000F088FA0948E060AA
:100640001430206100221021202000F07BFC20606B
:10065000002802D004A100F04BFB00F0B1FA10BD5D
:100660004800002014210020546D72510000000049
:1006700070B5134E134C1BE000F01AFC30680028D4
:100680001AD000F071FF00F093FAF068C568281DD9
:1006900000F039FAE068401EE0606068401E60606B
:1006A00000F08EFA286B00F095FA284600F092FAD6
:1006B00060680028E0D170BD00F056FFF8E7000048
:1006C000EC2000200C00002010B5026C0C46002A23
:1006D0000CD0C1688B18C36041688B4201D21946A7
:1006E00001E00168C1602046FFF746FD10BD70B50E
:1006F0001646026C00250446002A11D0002E19D09F
:10070000E068FFF739FDE168206C091AE1602268B2
:10071000914202D26168081AE060022E17D01CE0F4
:100720002068002819D1606800F0C4FE054600204A
:10073000606012E0A068FFF71FFD216CA068401800
:10074000A0606168884208D32068A06005E0A06BC3
:10075000002802D0A06B401EA063A06B401CA063C9
:10076000284670BD07480168C96A002901D00020E9
:100770007047054909680129F9D8C16A0069081A52
:10078000704700000C000020742000200B4CFFF785
:100790006FFF2068012801D900F09EFAFFF7E2FF01
:1007A0000228F4D300F084FBFFF7DCFF022801D31A
:1007B00000F05EFA00F0D8FEE9E7000074200020A7
:1007C00070B5002441600B4D0061914206D8D11AEA
:1007D0008269914206D2011D286907E09A4203D23C
:1007E000994201D3012403E0011DE86800F0BCF93F
:1007F000204670BD4800002030B589B0274D43E049
:100800000498002806DA059A0799069890470498F4
:10081000002839DB069C6069002802D0201D00F00A
:1008200072F902A800F08EF8024604980300FFF760
:1008300091FD0A0606062B202806062B202B05987C
:10084000A169034641182046FFF7BAFF01281BD1D2
:10085000616A20468847E069012815D10020009090
:100860000598A169002342181946204600F0ECFEC5
:100870000AE00598A061811813462046FFF7A0FF03
:1008800002E0204600F0A6F900231A4604A92868D1
:1008900000F077FB0028B3D109B030BD480000203C
:1008A000FEB50F46054600F003FB01A800F04AF82C
:1008B00004460198002802D000F056FEFEBD184EF6
:1008C000002F22D1A54220D800F04EFEF068274626
:1008D000C068C468201D00F016F9E069012810D135
:1008E000A0692B4641193A462046FFF769FF0128C7
:1008F00007D100200346014600902A46204600F01A
:10090000A3FE616A20468847FEBD291B306800F0BF
:1009100001FA00F029FE0028F6D100F0DDF9FEBD55
:10092000480000200648416B0968002905D0416B4A
:10093000C968C9684968C16270470021C943FAE7BC
:100940000C00002070B5054600F056FD064E04462A
:10095000B068844203D200F009F8012000E00020D2
:1009600028602046B46070BD48000020F8B5144DE2
:100970001EE0C068C4680668201D00F0C4F8616A03
:1009800020468847E069012812D1A0698019B04249
:1009900006D924616060211DE86800F0E5F807E0F1
:1009A00000200346014600903246204600F04CFEEF
:1009B000E86801680029DCD12969E9602861F8BD8F
:1009C0004800002072B6FEE7074CE0680168002985
:1009D00007D0C06800210068FFF762FFFFF70CFF37
:1009E000F3E701210020F7E74800002070B5044636
:1009F00000F0DEF8254624350CE0606A00280CD0B3
:100A0000284600F081FD002801D000F0B7F9A06C65
:100A1000401EA064A06C0028EFDC0026F643A6640C
:100A200000F0CEF800F0C4F8254610350CE020693F
:100A300000280CD0284600F067FD002801D000F007
:100A40009DF9606C401E6064606C0028EFDC666499
:100A500000F0B6F870BD000070B5044600254007F0
:100A600004D06007400F0821081A041900F020FA8A
:100A70000A484168002903D10949C908C9004160F1
:100A80000168084B0A199A4204D28A4202D9436883
:100A900002605D1800F068FD284670BD000000206F
:100AA0006C000020F81F000004490868002803D0EB
:100AB0000868C26B521CC263086870470C000020B3
:100AC00010B5064C031F24681C601B1F1960191FFA
:100AD000034B0B60143940380A6010BD94160000B7
:100AE000C509000008B50021EFF31080009100282F
:100AF00007D172B66846417081780220014368468A
:100B00008170009808BD4368826801699A608368B3
:100B100042685A604A68824201D182684A60002273
:100B200002610868401E0860704700000125064CFD
:100B3000AD05606829468143A1602840E0602A2015
:100B400000F004F9F5E70000000500500146083107
:100B500000224160D243C1608260016100210160D6
:100B6000704700210161704730B50B685A1C02D0F4
:100B70000246083202E0026904E022465468256811
:100B80009D42FAD953684B6099608A605160086150
:100B90000168491C016030BD42684A6093688B60FF
:100BA00093685960916008610168491C0160704751
:100BB00072B602480168491C0160704708000020B5
:100BC00003490868401E086000D162B67047000003
:100BD00008000020704708B50090684680788007BC
:100BE00003D56846407880F3108808BD38B50021E9
:100BF000EFF310800091002807D172B6684641706B
:100C000081780220014368468170009C00F058F909
:100C1000684600948078800703D56846407880F362
:100C2000108838BD10B50020FFF780FC0C4A202149
:100C30000A4891600B4A01215160816001600A49B4
:100C40000868FF22120290430322920310430860B7
:100C5000012006494004086010BD0000001001405A
:100C6000001501400013014010E400E000E100E045
:100C700070B504461348844200D9044672B6012078
:100C8000124D114AA8601249486800190002000A72
:100C900000230864FF2041301350012636046E60A3
:100CA000FFF7B6FB002808D0002C06D0BFF34F8F0B
:100CB000084820BF01680029FBD062B6AE60012061
:100CC000686070BDFDFFFF0000100140001301408F
:100CD0000015014000E200E00120044900074860DF
:100CE00040BFBFF34F8FBFF36F8F704700ED00E041
:100CF00010B5074B0022D4001C59002C03D0521C05
:100D0000022AF8D310BDD2009950D118486010BD06
:100D10006420002070B50D460446FFF749FF616C62
:100D20000020491C00D16064A16C491C00D1A06462
:100D3000FFF746FFA06B002804D120462946243047
:100D400000F03EF82046FFF751FE70BD10B50200DE
:100D50000FD000F0ADF80848016900688C18001D3C
:100D6000FFF7D1FE2046FFF741FC00F0FDFB002815
:100D700001D1FFF7B1FF10BD0C0000200149012097
:100D8000086270470C00002070B50B4D0C462968B6
:100D90001831FFF7E9FE2868001DFFF7B4FE601C5C
:100DA00004D028690019FFF721FC70BD29680348A9
:100DB000091DFFF7F1FE70BD0C000020002100208E
:100DC00070B5074C0D4621681831FFF7E5FE206825
:100DD000001DFFF798FE20694019FFF707FC70BD62
:100DE0000C00002070B5040025D0154DE06A29687C
:100DF000C96A88421FD2A069002804DB2868032141
:100E0000C06A081AA061E06A14220E4E504361695C
:100E10008019814210D1201DFFF775FE2868C06A35
:100E2000E0626969884200D96861142148438019E9
:100E3000211DFFF7B1FE70BD2868C06AE06270BD79
:100E40000C0000207420002002494A6A02600969EF
:100E5000416070470C0000201FB500240C48019031
:100E60000094029423463C220AA103940B4800F00C
:100E700005FA01280BD100F0C5FB012807D172B695
:100E80000121034808388161046100F03FF81FBD6B
:100E90001400002049444C45000000008D0700006C
:100EA00002490A6910180861704700000C00002010
:100EB0000248016B491C0163704700000C000020D0
:100EC0001048016B002902D0012101627047002106
:100ED00001620D4901E0521E4261426914235A43E6
:100EE0008A58002A4269F6D05A4351184A680B467C
:100EF000526808334A609A4201D152684A60D16808
:100F0000016070470C000020742000200B4C211D54
:100F1000C869FF2212049043032292051043102552
:100F2000C861FFF77FFE064900200860206928435A
:100F30002061FFF7CFF872B6FEE7000000ED00E099
:100F40000800002070B500240E460546002914D084
:100F50007043401C4C30FFF77FFD00280BD0044647
:100F6000002E0CD020464C30206026640121204603
:100F7000E56300F08EF8204670BD0020EAE72460AB
:100F8000F3E7FFB5002583B01E4604462F46FFF762
:100F90000FFEA06B00282AD0E56820460499FFF7D1
:100FA00093FB002E10D0E560606A002807D0204631
:100FB000243000F0A9FA002801D0FFF78DFEFFF7DA
:100FC000FFFD012007B0F0BDA06B401EA0632068AC
:100FD000002802D1FFF768FD606020690028EED08C
:100FE0002046103000F090FA0128E6D0E7E7059897
:100FF000002802D0002D03D006E0FFF7E1FD1EE03F
:101000006846FFF721FF0125FFF7DAFDFFF750FFE4
:10101000FFF7CEFD606C401C00D16764A06C401CE3
:1010200000D1A764FFF7CCFD05A9684600F002F9DE
:10103000002806D02046FFF7D9FC00F095FA0020E2
:10104000C0E7FFF7B5FDA06B002807D0FFF7B8FD9C
:101050002046FFF7CBFC00F087FA98E7FFF7B0FDDA
:101060002068002806D1FFF7A3FD6068FFF7BAFEED
:10107000FFF7A6FD204624300599FFF785FE2046A0
:10108000FFF7B4FC00F070FA002880D1FFF724FECF
:101090007DE770B50D460446FFF78AFD216CE06BD5
:1010A00048432168401860600020A063A160E06BA5
:1010B000216C401E484321684018E0600020C04376
:1010C0006064A06420461030002D09D0FFF73EFD7B
:1010D00020462430FFF73AFDFFF772FD012070BD76
:1010E00021690029F8D000F00FFA0128F4D1FFF7A8
:1010F000F3FDF1E7FFB5002583B01E4604462F46F9
:10110000FFF756FDA06BE16B884207D3022E05D096
:10111000059800281AD0002D1BD01EE0324620462C
:101120000499FFF7E4FA616A002906D020462430CA
:1011300000F0EAF9012802D003E0002801D0FFF70F
:10114000CBFDFFF73DFD012007B0F0BDFFF738FDF7
:101150001EE06846FFF778FE0125FFF731FDFFF737
:10116000A7FEFFF725FD606C401C00D16764A06CF2
:10117000401C00D1A764FFF723FD05A9684600F0D5
:1011800059F8002806D02046FFF730FC00F0ECF9B3
:101190000020D9E7FFF70CFDA06BE16B884210D16E
:1011A000FFF70EFD204610300599FFF7EDFD2046B4
:1011B000FFF71CFC00F0D8F90028A1D1FFF78CFD47
:1011C0009EE7FFF7FDFC2046FFF710FC00F0CCF98E
:1011D00096E7FFB581B01E4615460446FFF782FC30
:1011E0000746A06BE16B884208D3022E06D000248C
:1011F0003846FFF7F0FC204605B0F0BD32462046E9
:101200000299FFF774FAA06C401C04D0A06C401C3B
:10121000A0640124ECE7606A0028FAD0204624305C
:1012200000F072F90028F4D0002DF2D001202860DF
:10123000EFE7000070B50D460446FFF7B9FC0E4A13
:1012400011692868431C0FD02368526A934202D068
:1012500062688A420AD96268891A814206D2401AB3
:1012600028602046FFF7F0FD002400E00124FFF78E
:10127000A7FC204670BD00000C000020FFB581B027
:101280000C9895000A9F002802D12846FFF7E4FB3E
:10129000060016D04820FFF7DFFB040030460ED0D2
:1012A000A52229462063FEF779FF206B2D1F4019E8
:1012B000C008C00000903D460020029904E0FFF7FE
:1012C00089FC0024E44380E022180B5C2032137573
:1012D0000A5C002A02D0401C0428F5D300263720DF
:1012E0000655032D00D30225E562E663201DA563A4
:1012F000FFF737FC20461830FFF733FC246103204A
:10130000411B6462A161266444200655049A019938
:101310000098FFF7D5FB20600B98002800D00460F0
:10132000FFF746FC2A4DE868401CE8602868002862
:1013300003D0A869002828D02CE02C60E868012898
:1013400028D100261420234970434018FFF7FEFBE4
:10135000761C032EF6D31F483C30FFF7F7FB1D48E1
:101360005030FFF7F3FB1B486430FFF7EFFB1948E1
:101370007830FFF7EBFB17488C30FFF7E7FB154899
:101380003C3068631430A86304E02868C06AB8423F
:1013900000D82C60A86A401CA862E06A696988428B
:1013A00000D96861142148430A494018211DFFF7FC
:1013B000F3FB0124FFF704FCA869002805D0286886
:1013C000C06AB84201D2FFF787FC204605B0F0BDE5
:1013D0000C0000207420002006488169002904D0F8
:1013E000006B002803D000207047012070470220C6
:1013F000704700000C0000200148006970470000A1
:101400000C00002001480069704700000C0000201B
:10141000F8B5264C0027206B002808D0E069401C56
:10142000E061206A002800D001273846F8BD206915
:10143000401C20612669002E08D1606BA16B61639E
:10144000A063606A401C6062FFF76CFAE06A864243
:10145000E7D3606B0068002807D0606BC068C56880
:101460006868864204D2E062DBE70020C043FAE706
:10147000281DFFF748FBA86A002803D0284618302B
:10148000FFF741FBE86A6169884200D96061142175
:10149000484307494018291DFFF77EFBE86A216889
:1014A000C96A8842D5D30127D3E700000C00002089
:1014B0007420002010B50021044600281ED0E06BE7
:1014C000401EE063A36BE26A9A4217D0002815D150
:1014D000201DFFF718FBA06B0321E062081AA06132
:1014E0000749E06A4A69904200D94861142148439B
:1014F00004494018211DFFF74FFB0121084610BD8C
:101500000C0000207420002070B5C068C46820461C
:1015100018300646FFF7F7FA114D286B002802D065
:10152000314610480DE0201DFFF7EDFAE06A6969C9
:10153000884200D96861142148430A496439401837
:10154000211DFFF729FBE06A2968C96A884202D990
:1015500001242C6200E00024FFF7E4F9204670BD6E
:101560000C000020D8200020F8B50026FFF720FB53
:10157000224C206B401E2063206B00283AD1E1688A
:101580001F4F00291DD135E0F868C568284618307E
:10159000FFF7B9FA281DFFF7B6FAE86A61698842D1
:1015A00000D9606114214843154964394018291D48
:1015B000FFF7F2FAE86A2168C96A884201D301207C
:1015C000206238680028DFD1E06900280CD00125AE
:1015D000E069002808D0FFF71BFF002800D0256233
:1015E000E069401EE061F3E7206A012802D101268C
:1015F000FFF772FBFFF7E4FA3046F8BD0C0000205D
:10160000D82000201FB50024FFF70AF80A48006818
:1016100000280ED0002008490222091D029003462E
:10162000009201910390502204A10648FFF726FE84
:101630000446204604B010BD48000020546D7220BE
:1016400053766300C9090000F0B5114C1D4685B002
:101650000346276800200A9E002F0DD068460EC062
:1016600006290EDAFFF7B8FE022807D000231A4633
:1016700069462068FFF73EFD05B0F0BD0023324605
:10168000F6E700232A4669463846FFF7A2FDF3E74E
:101690004800002000000001B816000000000020F3
:1016A000640000006E0300001C17000064000020AE
:1016B000EC2800007E030000000000000000000095
:1016C000000000000000000000000000000000001A
:1016D000000000000000000000000000000000000A
:1016E00000000000000000000000000000000000FA
:1016F000FFFFFFFF000000000000000000000000EE
:1017000000000000000000000000000000000000D9
:0C17100000000000000000000024F400B5
:04000005000000C136
:00000001FF
